{
  "address": "0x5F1f8dF0a2FE5AD6BB2f5EF8C9CC5bE73E07823C",
  "abi": [
    {
      "inputs": [],
      "stateMutability": "nonpayable",
      "type": "constructor"
    },
    {
      "anonymous": false,
      "inputs": [
        {
          "indexed": true,
          "internalType": "address",
          "name": "owner",
          "type": "address"
        },
        {
          "indexed": true,
          "internalType": "address",
          "name": "approved",
          "type": "address"
        },
        {
          "indexed": true,
          "internalType": "uint256",
          "name": "tokenId",
          "type": "uint256"
        }
      ],
      "name": "Approval",
      "type": "event"
    },
    {
      "anonymous": false,
      "inputs": [
        {
          "indexed": true,
          "internalType": "address",
          "name": "owner",
          "type": "address"
        },
        {
          "indexed": true,
          "internalType": "address",
          "name": "operator",
          "type": "address"
        },
        {
          "indexed": false,
          "internalType": "bool",
          "name": "approved",
          "type": "bool"
        }
      ],
      "name": "ApprovalForAll",
      "type": "event"
    },
    {
      "anonymous": false,
      "inputs": [
        {
          "indexed": true,
          "internalType": "address",
          "name": "from",
          "type": "address"
        },
        {
          "indexed": true,
          "internalType": "address",
          "name": "to",
          "type": "address"
        },
        {
          "indexed": true,
          "internalType": "uint256",
          "name": "tokenId",
          "type": "uint256"
        }
      ],
      "name": "Transfer",
      "type": "event"
    },
    {
      "inputs": [],
      "name": "_tokenIds",
      "outputs": [
        {
          "internalType": "uint256",
          "name": "_value",
          "type": "uint256"
        }
      ],
      "stateMutability": "view",
      "type": "function"
    },
    {
      "inputs": [
        {
          "internalType": "address",
          "name": "to",
          "type": "address"
        },
        {
          "internalType": "uint256",
          "name": "tokenId",
          "type": "uint256"
        }
      ],
      "name": "approve",
      "outputs": [],
      "stateMutability": "nonpayable",
      "type": "function"
    },
    {
      "inputs": [
        {
          "internalType": "address",
          "name": "owner",
          "type": "address"
        }
      ],
      "name": "balanceOf",
      "outputs": [
        {
          "internalType": "uint256",
          "name": "",
          "type": "uint256"
        }
      ],
      "stateMutability": "view",
      "type": "function"
    },
    {
      "inputs": [
        {
          "internalType": "uint256",
          "name": "tokenId",
          "type": "uint256"
        }
      ],
      "name": "getApproved",
      "outputs": [
        {
          "internalType": "address",
          "name": "",
          "type": "address"
        }
      ],
      "stateMutability": "view",
      "type": "function"
    },
    {
      "inputs": [
        {
          "internalType": "address",
          "name": "owner",
          "type": "address"
        },
        {
          "internalType": "address",
          "name": "operator",
          "type": "address"
        }
      ],
      "name": "isApprovedForAll",
      "outputs": [
        {
          "internalType": "bool",
          "name": "",
          "type": "bool"
        }
      ],
      "stateMutability": "view",
      "type": "function"
    },
    {
      "inputs": [
        {
          "internalType": "address",
          "name": "recipient",
          "type": "address"
        }
      ],
      "name": "mintToken",
      "outputs": [
        {
          "internalType": "uint256",
          "name": "",
          "type": "uint256"
        }
      ],
      "stateMutability": "nonpayable",
      "type": "function"
    },
    {
      "inputs": [],
      "name": "name",
      "outputs": [
        {
          "internalType": "string",
          "name": "",
          "type": "string"
        }
      ],
      "stateMutability": "view",
      "type": "function"
    },
    {
      "inputs": [
        {
          "internalType": "uint256",
          "name": "tokenId",
          "type": "uint256"
        }
      ],
      "name": "ownerOf",
      "outputs": [
        {
          "internalType": "address",
          "name": "",
          "type": "address"
        }
      ],
      "stateMutability": "view",
      "type": "function"
    },
    {
      "inputs": [
        {
          "internalType": "address",
          "name": "from",
          "type": "address"
        },
        {
          "internalType": "address",
          "name": "to",
          "type": "address"
        },
        {
          "internalType": "uint256",
          "name": "tokenId",
          "type": "uint256"
        }
      ],
      "name": "safeTransferFrom",
      "outputs": [],
      "stateMutability": "nonpayable",
      "type": "function"
    },
    {
      "inputs": [
        {
          "internalType": "address",
          "name": "from",
          "type": "address"
        },
        {
          "internalType": "address",
          "name": "to",
          "type": "address"
        },
        {
          "internalType": "uint256",
          "name": "tokenId",
          "type": "uint256"
        },
        {
          "internalType": "bytes",
          "name": "data",
          "type": "bytes"
        }
      ],
      "name": "safeTransferFrom",
      "outputs": [],
      "stateMutability": "nonpayable",
      "type": "function"
    },
    {
      "inputs": [
        {
          "internalType": "address",
          "name": "operator",
          "type": "address"
        },
        {
          "internalType": "bool",
          "name": "approved",
          "type": "bool"
        }
      ],
      "name": "setApprovalForAll",
      "outputs": [],
      "stateMutability": "nonpayable",
      "type": "function"
    },
    {
      "inputs": [
        {
          "internalType": "bytes4",
          "name": "interfaceId",
          "type": "bytes4"
        }
      ],
      "name": "supportsInterface",
      "outputs": [
        {
          "internalType": "bool",
          "name": "",
          "type": "bool"
        }
      ],
      "stateMutability": "view",
      "type": "function"
    },
    {
      "inputs": [],
      "name": "symbol",
      "outputs": [
        {
          "internalType": "string",
          "name": "",
          "type": "string"
        }
      ],
      "stateMutability": "view",
      "type": "function"
    },
    {
      "inputs": [
        {
          "internalType": "uint256",
          "name": "index",
          "type": "uint256"
        }
      ],
      "name": "tokenByIndex",
      "outputs": [
        {
          "internalType": "uint256",
          "name": "",
          "type": "uint256"
        }
      ],
      "stateMutability": "view",
      "type": "function"
    },
    {
      "inputs": [
        {
          "internalType": "address",
          "name": "owner",
          "type": "address"
        },
        {
          "internalType": "uint256",
          "name": "index",
          "type": "uint256"
        }
      ],
      "name": "tokenOfOwnerByIndex",
      "outputs": [
        {
          "internalType": "uint256",
          "name": "",
          "type": "uint256"
        }
      ],
      "stateMutability": "view",
      "type": "function"
    },
    {
      "inputs": [
        {
          "internalType": "uint256",
          "name": "tokenId",
          "type": "uint256"
        }
      ],
      "name": "tokenURI",
      "outputs": [
        {
          "internalType": "string",
          "name": "",
          "type": "string"
        }
      ],
      "stateMutability": "view",
      "type": "function"
    },
    {
      "inputs": [],
      "name": "totalSupply",
      "outputs": [
        {
          "internalType": "uint256",
          "name": "",
          "type": "uint256"
        }
      ],
      "stateMutability": "view",
      "type": "function"
    },
    {
      "inputs": [
        {
          "internalType": "address",
          "name": "from",
          "type": "address"
        },
        {
          "internalType": "address",
          "name": "to",
          "type": "address"
        },
        {
          "internalType": "uint256",
          "name": "tokenId",
          "type": "uint256"
        }
      ],
      "name": "transferFrom",
      "outputs": [],
      "stateMutability": "nonpayable",
      "type": "function"
    }
  ],
  "transactionHash": "0xf8d1d036ba5217b1c018a1720933fd3964d16db6026ae20ec34bace91efefcc7",
  "args": [],
  "numDeployments": 1,
  "solcInputHash": "9e97c8abac92c7b2d75ba5b2967a94eb",
  "bytecode": "0x60806040523480156200001157600080fd5b506040518060400160405280601181526020017f455243373231205445535420544f4b454e0000000000000000000000000000008152506040518060400160405280600f81526020017f726f6f74455243373231546f6b656e0000000000000000000000000000000000815250816000908051906020019062000096929190620000b8565b508060019080519060200190620000af929190620000b8565b505050620001cd565b828054620000c69062000168565b90600052602060002090601f016020900481019282620000ea576000855562000136565b82601f106200010557805160ff191683800117855562000136565b8280016001018555821562000136579182015b828111156200013557825182559160200191906001019062000118565b5b50905062000145919062000149565b5090565b5b80821115620001645760008160009055506001016200014a565b5090565b600060028204905060018216806200018157607f821691505b602082108114156200019857620001976200019e565b5b50919050565b7f4e487b7100000000000000000000000000000000000000000000000000000000600052602260045260246000fd5b612d2680620001dd6000396000f3fe608060405234801561001057600080fd5b50600436106101165760003560e01c80634f6ccce7116100a2578063a22cb46511610071578063a22cb46514610319578063aa46a40014610335578063b88d4fde14610353578063c87b56dd1461036f578063e985e9c51461039f57610116565b80634f6ccce71461026b5780636352211e1461029b57806370a08231146102cb57806395d89b41146102fb57610116565b8063095ea7b3116100e9578063095ea7b3146101c957806318160ddd146101e557806323b872dd146102035780632f745c591461021f57806342842e0e1461024f57610116565b806301173a741461011b57806301ffc9a71461014b57806306fdde031461017b578063081812fc14610199575b600080fd5b61013560048036038101906101309190611e39565b6103cf565b604051610142919061255a565b60405180910390f35b61016560048036038101906101609190611fe0565b6103fc565b604051610172919061237d565b60405180910390f35b61018361040e565b6040516101909190612398565b60405180910390f35b6101b360048036038101906101ae9190612032565b6104a0565b6040516101c09190612316565b60405180910390f35b6101e360048036038101906101de9190611fa4565b6104e6565b005b6101ed6105fe565b6040516101fa919061255a565b60405180910390f35b61021d60048036038101906102189190611e9e565b61060b565b005b61023960048036038101906102349190611fa4565b61066b565b604051610246919061255a565b60405180910390f35b61026960048036038101906102649190611e9e565b610710565b005b61028560048036038101906102809190612032565b610730565b604051610292919061255a565b60405180910390f35b6102b560048036038101906102b09190612032565b6107c7565b6040516102c29190612316565b60405180910390f35b6102e560048036038101906102e09190611e39565b610879565b6040516102f2919061255a565b60405180910390f35b610303610931565b6040516103109190612398565b60405180910390f35b610333600480360381019061032e9190611f68565b6109c3565b005b61033d6109d9565b60405161034a919061255a565b60405180910390f35b61036d60048036038101906103689190611eed565b6109e5565b005b61038960048036038101906103849190612032565b610a47565b6040516103969190612398565b60405180910390f35b6103b960048036038101906103b49190611e62565b610aaf565b6040516103c6919061237d565b60405180910390f35b60006103db600a610b43565b60006103e7600a610b59565b90506103f38382610b67565b80915050919050565b600061040782610d41565b9050919050565b60606000805461041d9061277f565b80601f01602080910402602001604051908101604052809291908181526020018280546104499061277f565b80156104965780601f1061046b57610100808354040283529160200191610496565b820191906000526020600020905b81548152906001019060200180831161047957829003601f168201915b5050505050905090565b60006104ab82610dbb565b6004600083815260200190815260200160002060009054906101000a900473ffffffffffffffffffffffffffffffffffffffff169050919050565b60006104f1826107c7565b90508073ffffffffffffffffffffffffffffffffffffffff168373ffffffffffffffffffffffffffffffffffffffff161415610562576040517f08c379a0000000000000000000000000000000000000000000000000000000008152600401610559906124fa565b60405180910390fd5b8073ffffffffffffffffffffffffffffffffffffffff16610581610e06565b73ffffffffffffffffffffffffffffffffffffffff1614806105b057506105af816105aa610e06565b610aaf565b5b6105ef576040517f08c379a00000000000000000000000000000000000000000000000000000000081526004016105e69061249a565b60405180910390fd5b6105f98383610e0e565b505050565b6000600880549050905090565b61061c610616610e06565b82610ec7565b61065b576040517f08c379a00000000000000000000000000000000000000000000000000000000081526004016106529061253a565b60405180910390fd5b610666838383610f5c565b505050565b600061067683610879565b82106106b7576040517f08c379a00000000000000000000000000000000000000000000000000000000081526004016106ae906123ba565b60405180910390fd5b600660008473ffffffffffffffffffffffffffffffffffffffff1673ffffffffffffffffffffffffffffffffffffffff168152602001908152602001600020600083815260200190815260200160002054905092915050565b61072b838383604051806020016040528060008152506109e5565b505050565b600061073a6105fe565b821061077b576040517f08c379a00000000000000000000000000000000000000000000000000000000081526004016107729061251a565b60405180910390fd5b600882815481106107b5577f4e487b7100000000000000000000000000000000000000000000000000000000600052603260045260246000fd5b90600052602060002001549050919050565b6000806002600084815260200190815260200160002060009054906101000a900473ffffffffffffffffffffffffffffffffffffffff169050600073ffffffffffffffffffffffffffffffffffffffff168173ffffffffffffffffffffffffffffffffffffffff161415610870576040517f08c379a0000000000000000000000000000000000000000000000000000000008152600401610867906124da565b60405180910390fd5b80915050919050565b60008073ffffffffffffffffffffffffffffffffffffffff168273ffffffffffffffffffffffffffffffffffffffff1614156108ea576040517f08c379a00000000000000000000000000000000000000000000000000000000081526004016108e19061247a565b60405180910390fd5b600360008373ffffffffffffffffffffffffffffffffffffffff1673ffffffffffffffffffffffffffffffffffffffff168152602001908152602001600020549050919050565b6060600180546109409061277f565b80601f016020809104026020016040519081016040528092919081815260200182805461096c9061277f565b80156109b95780601f1061098e576101008083540402835291602001916109b9565b820191906000526020600020905b81548152906001019060200180831161099c57829003601f168201915b5050505050905090565b6109d56109ce610e06565b83836111c3565b5050565b600a8060000154905081565b6109f66109f0610e06565b83610ec7565b610a35576040517f08c379a0000000000000000000000000000000000000000000000000000000008152600401610a2c9061253a565b60405180910390fd5b610a4184848484611330565b50505050565b6060610a5282610dbb565b6000610a5c61138c565b90506000815111610a7c5760405180602001604052806000815250610aa7565b80610a86846113a3565b604051602001610a979291906122f2565b6040516020818303038152906040525b915050919050565b6000600560008473ffffffffffffffffffffffffffffffffffffffff1673ffffffffffffffffffffffffffffffffffffffff16815260200190815260200160002060008373ffffffffffffffffffffffffffffffffffffffff1673ffffffffffffffffffffffffffffffffffffffff16815260200190815260200160002060009054906101000a900460ff16905092915050565b6001816000016000828254019250508190555050565b600081600001549050919050565b600073ffffffffffffffffffffffffffffffffffffffff168273ffffffffffffffffffffffffffffffffffffffff161415610bd7576040517f08c379a0000000000000000000000000000000000000000000000000000000008152600401610bce906124ba565b60405180910390fd5b610be081611550565b15610c20576040517f08c379a0000000000000000000000000000000000000000000000000000000008152600401610c179061241a565b60405180910390fd5b610c2c600083836115bc565b6001600360008473ffffffffffffffffffffffffffffffffffffffff1673ffffffffffffffffffffffffffffffffffffffff1681526020019081526020016000206000828254610c7c919061260e565b92505081905550816002600083815260200190815260200160002060006101000a81548173ffffffffffffffffffffffffffffffffffffffff021916908373ffffffffffffffffffffffffffffffffffffffff160217905550808273ffffffffffffffffffffffffffffffffffffffff16600073ffffffffffffffffffffffffffffffffffffffff167fddf252ad1be2c89b69c2b068fc378daa952ba7f163c4a11628f55a4df523b3ef60405160405180910390a4610d3d600083836115cc565b5050565b60007f780e9d63000000000000000000000000000000000000000000000000000000007bffffffffffffffffffffffffffffffffffffffffffffffffffffffff1916827bffffffffffffffffffffffffffffffffffffffffffffffffffffffff19161480610db45750610db3826115d1565b5b9050919050565b610dc481611550565b610e03576040517f08c379a0000000000000000000000000000000000000000000000000000000008152600401610dfa906124da565b60405180910390fd5b50565b600033905090565b816004600083815260200190815260200160002060006101000a81548173ffffffffffffffffffffffffffffffffffffffff021916908373ffffffffffffffffffffffffffffffffffffffff160217905550808273ffffffffffffffffffffffffffffffffffffffff16610e81836107c7565b73ffffffffffffffffffffffffffffffffffffffff167f8c5be1e5ebec7d5bd14f71427d1e84f3dd0314c0f7b2291e5b200ac8c7c3b92560405160405180910390a45050565b600080610ed3836107c7565b90508073ffffffffffffffffffffffffffffffffffffffff168473ffffffffffffffffffffffffffffffffffffffff161480610f155750610f148185610aaf565b5b80610f5357508373ffffffffffffffffffffffffffffffffffffffff16610f3b846104a0565b73ffffffffffffffffffffffffffffffffffffffff16145b91505092915050565b8273ffffffffffffffffffffffffffffffffffffffff16610f7c826107c7565b73ffffffffffffffffffffffffffffffffffffffff1614610fd2576040517f08c379a0000000000000000000000000000000000000000000000000000000008152600401610fc9906123fa565b60405180910390fd5b600073ffffffffffffffffffffffffffffffffffffffff168273ffffffffffffffffffffffffffffffffffffffff161415611042576040517f08c379a00000000000000000000000000000000000000000000000000000000081526004016110399061243a565b60405180910390fd5b61104d8383836115bc565b611058600082610e0e565b6001600360008573ffffffffffffffffffffffffffffffffffffffff1673ffffffffffffffffffffffffffffffffffffffff16815260200190815260200160002060008282546110a89190612695565b925050819055506001600360008473ffffffffffffffffffffffffffffffffffffffff1673ffffffffffffffffffffffffffffffffffffffff16815260200190815260200160002060008282546110ff919061260e565b92505081905550816002600083815260200190815260200160002060006101000a81548173ffffffffffffffffffffffffffffffffffffffff021916908373ffffffffffffffffffffffffffffffffffffffff160217905550808273ffffffffffffffffffffffffffffffffffffffff168473ffffffffffffffffffffffffffffffffffffffff167fddf252ad1be2c89b69c2b068fc378daa952ba7f163c4a11628f55a4df523b3ef60405160405180910390a46111be8383836115cc565b505050565b8173ffffffffffffffffffffffffffffffffffffffff168373ffffffffffffffffffffffffffffffffffffffff161415611232576040517f08c379a00000000000000000000000000000000000000000000000000000000081526004016112299061245a565b60405180910390fd5b80600560008573ffffffffffffffffffffffffffffffffffffffff1673ffffffffffffffffffffffffffffffffffffffff16815260200190815260200160002060008473ffffffffffffffffffffffffffffffffffffffff1673ffffffffffffffffffffffffffffffffffffffff16815260200190815260200160002060006101000a81548160ff0219169083151502179055508173ffffffffffffffffffffffffffffffffffffffff168373ffffffffffffffffffffffffffffffffffffffff167f17307eab39ab6107e8899845ad3d59bd9653f200f220920489ca2b5937696c3183604051611323919061237d565b60405180910390a3505050565b61133b848484610f5c565b611347848484846116b3565b611386576040517f08c379a000000000000000000000000000000000000000000000000000000000815260040161137d906123da565b60405180910390fd5b50505050565b606060405180602001604052806000815250905090565b606060008214156113eb576040518060400160405280600181526020017f3000000000000000000000000000000000000000000000000000000000000000815250905061154b565b600082905060005b6000821461141d578080611406906127e2565b915050600a826114169190612664565b91506113f3565b60008167ffffffffffffffff81111561145f577f4e487b7100000000000000000000000000000000000000000000000000000000600052604160045260246000fd5b6040519080825280601f01601f1916602001820160405280156114915781602001600182028036833780820191505090505b5090505b60008514611544576001826114aa9190612695565b9150600a856114b9919061282b565b60306114c5919061260e565b60f81b818381518110611501577f4e487b7100000000000000000000000000000000000000000000000000000000600052603260045260246000fd5b60200101907effffffffffffffffffffffffffffffffffffffffffffffffffffffffffffff1916908160001a905350600a8561153d9190612664565b9450611495565b8093505050505b919050565b60008073ffffffffffffffffffffffffffffffffffffffff166002600084815260200190815260200160002060009054906101000a900473ffffffffffffffffffffffffffffffffffffffff1673ffffffffffffffffffffffffffffffffffffffff1614159050919050565b6115c783838361184a565b505050565b505050565b60007f80ac58cd000000000000000000000000000000000000000000000000000000007bffffffffffffffffffffffffffffffffffffffffffffffffffffffff1916827bffffffffffffffffffffffffffffffffffffffffffffffffffffffff1916148061169c57507f5b5e139f000000000000000000000000000000000000000000000000000000007bffffffffffffffffffffffffffffffffffffffffffffffffffffffff1916827bffffffffffffffffffffffffffffffffffffffffffffffffffffffff1916145b806116ac57506116ab8261195e565b5b9050919050565b60006116d48473ffffffffffffffffffffffffffffffffffffffff166119c8565b1561183d578373ffffffffffffffffffffffffffffffffffffffff1663150b7a026116fd610e06565b8786866040518563ffffffff1660e01b815260040161171f9493929190612331565b602060405180830381600087803b15801561173957600080fd5b505af192505050801561176a57506040513d601f19601f820116820180604052508101906117679190612009565b60015b6117ed573d806000811461179a576040519150601f19603f3d011682016040523d82523d6000602084013e61179f565b606091505b506000815114156117e5576040517f08c379a00000000000000000000000000000000000000000000000000000000081526004016117dc906123da565b60405180910390fd5b805181602001fd5b63150b7a0260e01b7bffffffffffffffffffffffffffffffffffffffffffffffffffffffff1916817bffffffffffffffffffffffffffffffffffffffffffffffffffffffff191614915050611842565b600190505b949350505050565b6118558383836119eb565b600073ffffffffffffffffffffffffffffffffffffffff168373ffffffffffffffffffffffffffffffffffffffff16141561189857611893816119f0565b6118d7565b8173ffffffffffffffffffffffffffffffffffffffff168373ffffffffffffffffffffffffffffffffffffffff16146118d6576118d58382611a39565b5b5b600073ffffffffffffffffffffffffffffffffffffffff168273ffffffffffffffffffffffffffffffffffffffff16141561191a5761191581611ba6565b611959565b8273ffffffffffffffffffffffffffffffffffffffff168273ffffffffffffffffffffffffffffffffffffffff1614611958576119578282611ce9565b5b5b505050565b60007f01ffc9a7000000000000000000000000000000000000000000000000000000007bffffffffffffffffffffffffffffffffffffffffffffffffffffffff1916827bffffffffffffffffffffffffffffffffffffffffffffffffffffffff1916149050919050565b6000808273ffffffffffffffffffffffffffffffffffffffff163b119050919050565b505050565b6008805490506009600083815260200190815260200160002081905550600881908060018154018082558091505060019003906000526020600020016000909190919091505550565b60006001611a4684610879565b611a509190612695565b9050600060076000848152602001908152602001600020549050818114611b35576000600660008673ffffffffffffffffffffffffffffffffffffffff1673ffffffffffffffffffffffffffffffffffffffff168152602001908152602001600020600084815260200190815260200160002054905080600660008773ffffffffffffffffffffffffffffffffffffffff1673ffffffffffffffffffffffffffffffffffffffff168152602001908152602001600020600084815260200190815260200160002081905550816007600083815260200190815260200160002081905550505b6007600084815260200190815260200160002060009055600660008573ffffffffffffffffffffffffffffffffffffffff1673ffffffffffffffffffffffffffffffffffffffff16815260200190815260200160002060008381526020019081526020016000206000905550505050565b60006001600880549050611bba9190612695565b9050600060096000848152602001908152602001600020549050600060088381548110611c10577f4e487b7100000000000000000000000000000000000000000000000000000000600052603260045260246000fd5b906000526020600020015490508060088381548110611c58577f4e487b7100000000000000000000000000000000000000000000000000000000600052603260045260246000fd5b906000526020600020018190555081600960008381526020019081526020016000208190555060096000858152602001908152602001600020600090556008805480611ccd577f4e487b7100000000000000000000000000000000000000000000000000000000600052603160045260246000fd5b6001900381819060005260206000200160009055905550505050565b6000611cf483610879565b905081600660008573ffffffffffffffffffffffffffffffffffffffff1673ffffffffffffffffffffffffffffffffffffffff168152602001908152602001600020600083815260200190815260200160002081905550806007600084815260200190815260200160002081905550505050565b6000611d7b611d768461259a565b612575565b905082815260208101848484011115611d9357600080fd5b611d9e84828561273d565b509392505050565b600081359050611db581612c94565b92915050565b600081359050611dca81612cab565b92915050565b600081359050611ddf81612cc2565b92915050565b600081519050611df481612cc2565b92915050565b600082601f830112611e0b57600080fd5b8135611e1b848260208601611d68565b91505092915050565b600081359050611e3381612cd9565b92915050565b600060208284031215611e4b57600080fd5b6000611e5984828501611da6565b91505092915050565b60008060408385031215611e7557600080fd5b6000611e8385828601611da6565b9250506020611e9485828601611da6565b9150509250929050565b600080600060608486031215611eb357600080fd5b6000611ec186828701611da6565b9350506020611ed286828701611da6565b9250506040611ee386828701611e24565b9150509250925092565b60008060008060808587031215611f0357600080fd5b6000611f1187828801611da6565b9450506020611f2287828801611da6565b9350506040611f3387828801611e24565b925050606085013567ffffffffffffffff811115611f5057600080fd5b611f5c87828801611dfa565b91505092959194509250565b60008060408385031215611f7b57600080fd5b6000611f8985828601611da6565b9250506020611f9a85828601611dbb565b9150509250929050565b60008060408385031215611fb757600080fd5b6000611fc585828601611da6565b9250506020611fd685828601611e24565b9150509250929050565b600060208284031215611ff257600080fd5b600061200084828501611dd0565b91505092915050565b60006020828403121561201b57600080fd5b600061202984828501611de5565b91505092915050565b60006020828403121561204457600080fd5b600061205284828501611e24565b91505092915050565b612064816126c9565b82525050565b612073816126db565b82525050565b6000612084826125cb565b61208e81856125e1565b935061209e81856020860161274c565b6120a781612918565b840191505092915050565b60006120bd826125d6565b6120c781856125f2565b93506120d781856020860161274c565b6120e081612918565b840191505092915050565b60006120f6826125d6565b6121008185612603565b935061211081856020860161274c565b80840191505092915050565b6000612129602b836125f2565b915061213482612929565b604082019050919050565b600061214c6032836125f2565b915061215782612978565b604082019050919050565b600061216f6025836125f2565b915061217a826129c7565b604082019050919050565b6000612192601c836125f2565b915061219d82612a16565b602082019050919050565b60006121b56024836125f2565b91506121c082612a3f565b604082019050919050565b60006121d86019836125f2565b91506121e382612a8e565b602082019050919050565b60006121fb6029836125f2565b915061220682612ab7565b604082019050919050565b600061221e603e836125f2565b915061222982612b06565b604082019050919050565b60006122416020836125f2565b915061224c82612b55565b602082019050919050565b60006122646018836125f2565b915061226f82612b7e565b602082019050919050565b60006122876021836125f2565b915061229282612ba7565b604082019050919050565b60006122aa602c836125f2565b91506122b582612bf6565b604082019050919050565b60006122cd602e836125f2565b91506122d882612c45565b604082019050919050565b6122ec81612733565b82525050565b60006122fe82856120eb565b915061230a82846120eb565b91508190509392505050565b600060208201905061232b600083018461205b565b92915050565b6000608082019050612346600083018761205b565b612353602083018661205b565b61236060408301856122e3565b81810360608301526123728184612079565b905095945050505050565b6000602082019050612392600083018461206a565b92915050565b600060208201905081810360008301526123b281846120b2565b905092915050565b600060208201905081810360008301526123d38161211c565b9050919050565b600060208201905081810360008301526123f38161213f565b9050919050565b6000602082019050818103600083015261241381612162565b9050919050565b6000602082019050818103600083015261243381612185565b9050919050565b60006020820190508181036000830152612453816121a8565b9050919050565b60006020820190508181036000830152612473816121cb565b9050919050565b60006020820190508181036000830152612493816121ee565b9050919050565b600060208201905081810360008301526124b381612211565b9050919050565b600060208201905081810360008301526124d381612234565b9050919050565b600060208201905081810360008301526124f381612257565b9050919050565b600060208201905081810360008301526125138161227a565b9050919050565b600060208201905081810360008301526125338161229d565b9050919050565b60006020820190508181036000830152612553816122c0565b9050919050565b600060208201905061256f60008301846122e3565b92915050565b600061257f612590565b905061258b82826127b1565b919050565b6000604051905090565b600067ffffffffffffffff8211156125b5576125b46128e9565b5b6125be82612918565b9050602081019050919050565b600081519050919050565b600081519050919050565b600082825260208201905092915050565b600082825260208201905092915050565b600081905092915050565b600061261982612733565b915061262483612733565b9250827fffffffffffffffffffffffffffffffffffffffffffffffffffffffffffffffff038211156126595761265861285c565b5b828201905092915050565b600061266f82612733565b915061267a83612733565b92508261268a5761268961288b565b5b828204905092915050565b60006126a082612733565b91506126ab83612733565b9250828210156126be576126bd61285c565b5b828203905092915050565b60006126d482612713565b9050919050565b60008115159050919050565b60007fffffffff0000000000000000000000000000000000000000000000000000000082169050919050565b600073ffffffffffffffffffffffffffffffffffffffff82169050919050565b6000819050919050565b82818337600083830152505050565b60005b8381101561276a57808201518184015260208101905061274f565b83811115612779576000848401525b50505050565b6000600282049050600182168061279757607f821691505b602082108114156127ab576127aa6128ba565b5b50919050565b6127ba82612918565b810181811067ffffffffffffffff821117156127d9576127d86128e9565b5b80604052505050565b60006127ed82612733565b91507fffffffffffffffffffffffffffffffffffffffffffffffffffffffffffffffff8214156128205761281f61285c565b5b600182019050919050565b600061283682612733565b915061284183612733565b9250826128515761285061288b565b5b828206905092915050565b7f4e487b7100000000000000000000000000000000000000000000000000000000600052601160045260246000fd5b7f4e487b7100000000000000000000000000000000000000000000000000000000600052601260045260246000fd5b7f4e487b7100000000000000000000000000000000000000000000000000000000600052602260045260246000fd5b7f4e487b7100000000000000000000000000000000000000000000000000000000600052604160045260246000fd5b6000601f19601f8301169050919050565b7f455243373231456e756d657261626c653a206f776e657220696e646578206f7560008201527f74206f6620626f756e6473000000000000000000000000000000000000000000602082015250565b7f4552433732313a207472616e7366657220746f206e6f6e20455243373231526560008201527f63656976657220696d706c656d656e7465720000000000000000000000000000602082015250565b7f4552433732313a207472616e736665722066726f6d20696e636f72726563742060008201527f6f776e6572000000000000000000000000000000000000000000000000000000602082015250565b7f4552433732313a20746f6b656e20616c7265616479206d696e74656400000000600082015250565b7f4552433732313a207472616e7366657220746f20746865207a65726f2061646460008201527f7265737300000000000000000000000000000000000000000000000000000000602082015250565b7f4552433732313a20617070726f766520746f2063616c6c657200000000000000600082015250565b7f4552433732313a2061646472657373207a65726f206973206e6f74206120766160008201527f6c6964206f776e65720000000000000000000000000000000000000000000000602082015250565b7f4552433732313a20617070726f76652063616c6c6572206973206e6f7420746f60008201527f6b656e206f776e6572206e6f7220617070726f76656420666f7220616c6c0000602082015250565b7f4552433732313a206d696e7420746f20746865207a65726f2061646472657373600082015250565b7f4552433732313a20696e76616c696420746f6b656e2049440000000000000000600082015250565b7f4552433732313a20617070726f76616c20746f2063757272656e74206f776e6560008201527f7200000000000000000000000000000000000000000000000000000000000000602082015250565b7f455243373231456e756d657261626c653a20676c6f62616c20696e646578206f60008201527f7574206f6620626f756e64730000000000000000000000000000000000000000602082015250565b7f4552433732313a2063616c6c6572206973206e6f7420746f6b656e206f776e6560008201527f72206e6f7220617070726f766564000000000000000000000000000000000000602082015250565b612c9d816126c9565b8114612ca857600080fd5b50565b612cb4816126db565b8114612cbf57600080fd5b50565b612ccb816126e7565b8114612cd657600080fd5b50565b612ce281612733565b8114612ced57600080fd5b5056fea2646970667358221220d405cc14bc303b65d126e2fa9ea746d32c3f573012410ed5a874b9a524ec3dda64736f6c63430008010033",
  "devdoc": {
    "kind": "dev",
    "methods": {
      "approve(address,uint256)": {
        "details": "See {IERC721-approve}."
      },
      "balanceOf(address)": {
        "details": "See {IERC721-balanceOf}."
      },
      "getApproved(uint256)": {
        "details": "See {IERC721-getApproved}."
      },
      "isApprovedForAll(address,address)": {
        "details": "See {IERC721-isApprovedForAll}."
      },
      "name()": {
        "details": "See {IERC721Metadata-name}."
      },
      "ownerOf(uint256)": {
        "details": "See {IERC721-ownerOf}."
      },
      "safeTransferFrom(address,address,uint256)": {
        "details": "See {IERC721-safeTransferFrom}."
      },
      "safeTransferFrom(address,address,uint256,bytes)": {
        "details": "See {IERC721-safeTransferFrom}."
      },
      "setApprovalForAll(address,bool)": {
        "details": "See {IERC721-setApprovalForAll}."
      },
      "symbol()": {
        "details": "See {IERC721Metadata-symbol}."
      },
      "tokenByIndex(uint256)": {
        "details": "See {IERC721Enumerable-tokenByIndex}."
      },
      "tokenOfOwnerByIndex(address,uint256)": {
        "details": "See {IERC721Enumerable-tokenOfOwnerByIndex}."
      },
      "tokenURI(uint256)": {
        "details": "See {IERC721Metadata-tokenURI}."
      },
      "totalSupply()": {
        "details": "See {IERC721Enumerable-totalSupply}."
      },
      "transferFrom(address,address,uint256)": {
        "details": "See {IERC721-transferFrom}."
      }
    },
    "version": 1
  },
  "userdoc": {
    "kind": "user",
    "methods": {},
    "version": 1
  },
  "storageLayout": {
    "storage": [
      {
        "astId": 827,
        "contract": "src/rootERC721Token.sol:rootERC721Token",
        "label": "_name",
        "offset": 0,
        "slot": "0",
        "type": "t_string_storage"
      },
      {
        "astId": 829,
        "contract": "src/rootERC721Token.sol:rootERC721Token",
        "label": "_symbol",
        "offset": 0,
        "slot": "1",
        "type": "t_string_storage"
      },
      {
        "astId": 833,
        "contract": "src/rootERC721Token.sol:rootERC721Token",
        "label": "_owners",
        "offset": 0,
        "slot": "2",
        "type": "t_mapping(t_uint256,t_address)"
      },
      {
        "astId": 837,
        "contract": "src/rootERC721Token.sol:rootERC721Token",
        "label": "_balances",
        "offset": 0,
        "slot": "3",
        "type": "t_mapping(t_address,t_uint256)"
      },
      {
        "astId": 841,
        "contract": "src/rootERC721Token.sol:rootERC721Token",
        "label": "_tokenApprovals",
        "offset": 0,
        "slot": "4",
        "type": "t_mapping(t_uint256,t_address)"
      },
      {
        "astId": 847,
        "contract": "src/rootERC721Token.sol:rootERC721Token",
        "label": "_operatorApprovals",
        "offset": 0,
        "slot": "5",
        "type": "t_mapping(t_address,t_mapping(t_address,t_bool))"
      },
      {
        "astId": 1817,
        "contract": "src/rootERC721Token.sol:rootERC721Token",
        "label": "_ownedTokens",
        "offset": 0,
        "slot": "6",
        "type": "t_mapping(t_address,t_mapping(t_uint256,t_uint256))"
      },
      {
        "astId": 1821,
        "contract": "src/rootERC721Token.sol:rootERC721Token",
        "label": "_ownedTokensIndex",
        "offset": 0,
        "slot": "7",
        "type": "t_mapping(t_uint256,t_uint256)"
      },
      {
        "astId": 1824,
        "contract": "src/rootERC721Token.sol:rootERC721Token",
        "label": "_allTokens",
        "offset": 0,
        "slot": "8",
        "type": "t_array(t_uint256)dyn_storage"
      },
      {
        "astId": 1828,
        "contract": "src/rootERC721Token.sol:rootERC721Token",
        "label": "_allTokensIndex",
        "offset": 0,
        "slot": "9",
        "type": "t_mapping(t_uint256,t_uint256)"
      },
      {
        "astId": 2892,
        "contract": "src/rootERC721Token.sol:rootERC721Token",
        "label": "_tokenIds",
        "offset": 0,
        "slot": "10",
        "type": "t_struct(Counter)2521_storage"
      }
    ],
    "types": {
      "t_address": {
        "encoding": "inplace",
        "label": "address",
        "numberOfBytes": "20"
      },
      "t_array(t_uint256)dyn_storage": {
        "base": "t_uint256",
        "encoding": "dynamic_array",
        "label": "uint256[]",
        "numberOfBytes": "32"
      },
      "t_bool": {
        "encoding": "inplace",
        "label": "bool",
        "numberOfBytes": "1"
      },
      "t_mapping(t_address,t_bool)": {
        "encoding": "mapping",
        "key": "t_address",
        "label": "mapping(address => bool)",
        "numberOfBytes": "32",
        "value": "t_bool"
      },
      "t_mapping(t_address,t_mapping(t_address,t_bool))": {
        "encoding": "mapping",
        "key": "t_address",
        "label": "mapping(address => mapping(address => bool))",
        "numberOfBytes": "32",
        "value": "t_mapping(t_address,t_bool)"
      },
      "t_mapping(t_address,t_mapping(t_uint256,t_uint256))": {
        "encoding": "mapping",
        "key": "t_address",
        "label": "mapping(address => mapping(uint256 => uint256))",
        "numberOfBytes": "32",
        "value": "t_mapping(t_uint256,t_uint256)"
      },
      "t_mapping(t_address,t_uint256)": {
        "encoding": "mapping",
        "key": "t_address",
        "label": "mapping(address => uint256)",
        "numberOfBytes": "32",
        "value": "t_uint256"
      },
      "t_mapping(t_uint256,t_address)": {
        "encoding": "mapping",
        "key": "t_uint256",
        "label": "mapping(uint256 => address)",
        "numberOfBytes": "32",
        "value": "t_address"
      },
      "t_mapping(t_uint256,t_uint256)": {
        "encoding": "mapping",
        "key": "t_uint256",
        "label": "mapping(uint256 => uint256)",
        "numberOfBytes": "32",
        "value": "t_uint256"
      },
      "t_string_storage": {
        "encoding": "bytes",
        "label": "string",
        "numberOfBytes": "32"
      },
      "t_struct(Counter)2521_storage": {
        "encoding": "inplace",
        "label": "struct Counters.Counter",
        "members": [
          {
            "astId": 2520,
            "contract": "src/rootERC721Token.sol:rootERC721Token",
            "label": "_value",
            "offset": 0,
            "slot": "0",
            "type": "t_uint256"
          }
        ],
        "numberOfBytes": "32"
      },
      "t_uint256": {
        "encoding": "inplace",
        "label": "uint256",
        "numberOfBytes": "32"
      }
    }
  }
}